{
  "contractName": "SupplyChain",
  "abi": [
    {
      "constant": true,
      "inputs": [],
      "name": "skuCount",
      "outputs": [
        {
          "name": "",
          "type": "uint256"
        }
      ],
      "payable": false,
      "stateMutability": "view",
      "type": "function"
    },
    {
      "constant": true,
      "inputs": [],
      "name": "owner",
      "outputs": [
        {
          "name": "",
          "type": "address"
        }
      ],
      "payable": false,
      "stateMutability": "view",
      "type": "function"
    },
    {
      "constant": true,
      "inputs": [
        {
          "name": "",
          "type": "uint256"
        }
      ],
      "name": "items",
      "outputs": [
        {
          "name": "name",
          "type": "string"
        },
        {
          "name": "sku",
          "type": "uint256"
        },
        {
          "name": "price",
          "type": "uint256"
        },
        {
          "name": "state",
          "type": "uint8"
        },
        {
          "name": "seller",
          "type": "address"
        },
        {
          "name": "buyer",
          "type": "address"
        }
      ],
      "payable": false,
      "stateMutability": "view",
      "type": "function"
    },
    {
      "inputs": [],
      "payable": false,
      "stateMutability": "nonpayable",
      "type": "constructor"
    },
    {
      "anonymous": false,
      "inputs": [
        {
          "indexed": true,
          "name": "sku",
          "type": "uint256"
        }
      ],
      "name": "ForSale",
      "type": "event"
    },
    {
      "anonymous": false,
      "inputs": [
        {
          "indexed": true,
          "name": "sku",
          "type": "uint256"
        }
      ],
      "name": "Sold",
      "type": "event"
    },
    {
      "anonymous": false,
      "inputs": [
        {
          "indexed": true,
          "name": "sku",
          "type": "uint256"
        }
      ],
      "name": "Shipped",
      "type": "event"
    },
    {
      "anonymous": false,
      "inputs": [
        {
          "indexed": true,
          "name": "sku",
          "type": "uint256"
        }
      ],
      "name": "Received",
      "type": "event"
    },
    {
      "anonymous": false,
      "inputs": [
        {
          "indexed": true,
          "name": "sku",
          "type": "uint256"
        }
      ],
      "name": "DisputeResolved",
      "type": "event"
    },
    {
      "constant": false,
      "inputs": [
        {
          "name": "_sku",
          "type": "uint256"
        }
      ],
      "name": "resolveDispute",
      "outputs": [
        {
          "name": "",
          "type": "bool"
        }
      ],
      "payable": false,
      "stateMutability": "nonpayable",
      "type": "function"
    },
    {
      "constant": false,
      "inputs": [
        {
          "name": "_name",
          "type": "string"
        },
        {
          "name": "_price",
          "type": "uint256"
        }
      ],
      "name": "addItem",
      "outputs": [
        {
          "name": "",
          "type": "bool"
        }
      ],
      "payable": false,
      "stateMutability": "nonpayable",
      "type": "function"
    },
    {
      "constant": false,
      "inputs": [
        {
          "name": "_sku",
          "type": "uint256"
        }
      ],
      "name": "buyItem",
      "outputs": [],
      "payable": true,
      "stateMutability": "payable",
      "type": "function"
    },
    {
      "constant": false,
      "inputs": [
        {
          "name": "_sku",
          "type": "uint256"
        }
      ],
      "name": "shipItem",
      "outputs": [],
      "payable": false,
      "stateMutability": "nonpayable",
      "type": "function"
    },
    {
      "constant": false,
      "inputs": [
        {
          "name": "_sku",
          "type": "uint256"
        }
      ],
      "name": "receiveItem",
      "outputs": [],
      "payable": false,
      "stateMutability": "nonpayable",
      "type": "function"
    },
    {
      "constant": true,
      "inputs": [
        {
          "name": "_sku",
          "type": "uint256"
        }
      ],
      "name": "fetchItem",
      "outputs": [
        {
          "name": "name",
          "type": "string"
        },
        {
          "name": "sku",
          "type": "uint256"
        },
        {
          "name": "price",
          "type": "uint256"
        },
        {
          "name": "state",
          "type": "uint256"
        },
        {
          "name": "seller",
          "type": "address"
        },
        {
          "name": "buyer",
          "type": "address"
        }
      ],
      "payable": false,
      "stateMutability": "view",
      "type": "function"
    }
  ],
  "bytecode": "0x608060405234801561001057600080fd5b50336000806101000a81548173ffffffffffffffffffffffffffffffffffffffff021916908373ffffffffffffffffffffffffffffffffffffffff1602179055506000600181905550611380806100686000396000f300608060405260043610610099576000357c0100000000000000000000000000000000000000000000000000000000900463ffffffff168063227024731461009e57806362d6bbdf146100c95780638da5cb5b14610154578063a26be999146101ab578063ad4b9cfb146101d8578063bfb231d2146102f9578063c2b7b86814610428578063e7fb74c71461046d578063f61c899a1461048d575b600080fd5b3480156100aa57600080fd5b506100b36104ba565b6040518082815260200191505060405180910390f35b3480156100d557600080fd5b5061013a600480360381019080803590602001908201803590602001908080601f0160208091040260200160405190810160405280939291908181526020018383808284378201915050505050509192919290803590602001909291905050506104c0565b604051808215151515815260200191505060405180910390f35b34801561016057600080fd5b50610169610714565b604051808273ffffffffffffffffffffffffffffffffffffffff1673ffffffffffffffffffffffffffffffffffffffff16815260200191505060405180910390f35b3480156101b757600080fd5b506101d660048036038101908080359060200190929190505050610739565b005b3480156101e457600080fd5b506102036004803603810190808035906020019092919050505061092f565b60405180806020018781526020018681526020018581526020018473ffffffffffffffffffffffffffffffffffffffff1673ffffffffffffffffffffffffffffffffffffffff1681526020018373ffffffffffffffffffffffffffffffffffffffff1673ffffffffffffffffffffffffffffffffffffffff168152602001828103825288818151815260200191508051906020019080838360005b838110156102b957808201518184015260208101905061029e565b50505050905090810190601f1680156102e65780820380516001836020036101000a031916815260200191505b5097505050505050505060405180910390f35b34801561030557600080fd5b5061032460048036038101908080359060200190929190505050610ada565b604051808060200187815260200186815260200185600381111561034457fe5b60ff1681526020018473ffffffffffffffffffffffffffffffffffffffff1673ffffffffffffffffffffffffffffffffffffffff1681526020018373ffffffffffffffffffffffffffffffffffffffff1673ffffffffffffffffffffffffffffffffffffffff168152602001828103825288818151815260200191508051906020019080838360005b838110156103e85780820151818401526020810190506103cd565b50505050905090810190601f1680156104155780820380516001836020036101000a031916815260200191505b5097505050505050505060405180910390f35b34801561043457600080fd5b5061045360048036038101908080359060200190929190505050610bfb565b604051808215151515815260200191505060405180910390f35b61048b60048036038101908080359060200190929190505050610d85565b005b34801561049957600080fd5b506104b8600480360381019080803590602001909291905050506110ba565b005b60015481565b6000816000811180156104f257507fffffffffffffffffffffffffffffffffffffffffffffffffffffffffffffffff81105b1515610566576040517f08c379a00000000000000000000000000000000000000000000000000000000081526004018080602001828103825260168152602001807f4661696c656420626f756e6461727920636865636b2e0000000000000000000081525060200191505060405180910390fd5b6001547fa96ae0fc3224ebd79eebfe54bd130cc9cb94416cddd1f2386115e00b7253246860405160405180910390a260c0604051908101604052808581526020016001548152602001848152602001600060038111156105c257fe5b81526020013373ffffffffffffffffffffffffffffffffffffffff168152602001600073ffffffffffffffffffffffffffffffffffffffff16815250600260006001548152602001908152602001600020600082015181600001908051906020019061062f9291906112af565b50602082015181600101556040820151816002015560608201518160030160006101000a81548160ff0219169083600381111561066857fe5b021790555060808201518160030160016101000a81548173ffffffffffffffffffffffffffffffffffffffff021916908373ffffffffffffffffffffffffffffffffffffffff16021790555060a08201518160040160006101000a81548173ffffffffffffffffffffffffffffffffffffffff021916908373ffffffffffffffffffffffffffffffffffffffff1602179055509050506001805401600181905550600191505092915050565b6000809054906101000a900473ffffffffffffffffffffffffffffffffffffffff1681565b806002600381111561074757fe5b6002600083815260200190815260200160002060030160009054906101000a900460ff16600381111561077657fe5b1415156107eb576040517f08c379a00000000000000000000000000000000000000000000000000000000081526004018080602001828103825260188152602001807f457870656374696e672053746174653a2053686970706564000000000000000081525060200191505060405180910390fd5b6002600083815260200190815260200160002060040160009054906101000a900473ffffffffffffffffffffffffffffffffffffffff168073ffffffffffffffffffffffffffffffffffffffff163373ffffffffffffffffffffffffffffffffffffffff161415156108c5576040517f08c379a00000000000000000000000000000000000000000000000000000000081526004018080602001828103825260188152602001807f4661696c656420746f207665726966792063616c6c65722e000000000000000081525060200191505060405180910390fd5b60036002600085815260200190815260200160002060030160006101000a81548160ff021916908360038111156108f857fe5b0217905550827fa8142743f8f70a4c26f3691cf4ed59718381fb2f18070ec52be1f1022d85555760405160405180910390a2505050565b60606000806000806000600260008881526020019081526020016000206000018054600181600116156101000203166002900480601f0160208091040260200160405190810160405280929190818152602001828054600181600116156101000203166002900480156109e35780601f106109b8576101008083540402835291602001916109e3565b820191906000526020600020905b8154815290600101906020018083116109c657829003601f168201915b5050505050955060026000888152602001908152602001600020600101549450600260008881526020019081526020016000206002015493506002600088815260200190815260200160002060030160009054906101000a900460ff166003811115610a4b57fe5b92506002600088815260200190815260200160002060030160019054906101000a900473ffffffffffffffffffffffffffffffffffffffff1691506002600088815260200190815260200160002060040160009054906101000a900473ffffffffffffffffffffffffffffffffffffffff16905085858585858595509550955095509550955091939550919395565b6002602052806000526040600020600091509050806000018054600181600116156101000203166002900480601f016020809104026020016040519081016040528092919081815260200182805460018160011615610100020316600290048015610b865780601f10610b5b57610100808354040283529160200191610b86565b820191906000526020600020905b815481529060010190602001808311610b6957829003601f168201915b5050505050908060010154908060020154908060030160009054906101000a900460ff16908060030160019054906101000a900473ffffffffffffffffffffffffffffffffffffffff16908060040160009054906101000a900473ffffffffffffffffffffffffffffffffffffffff16905086565b60008060009054906101000a900473ffffffffffffffffffffffffffffffffffffffff1673ffffffffffffffffffffffffffffffffffffffff163373ffffffffffffffffffffffffffffffffffffffff16141515610cc1576040517f08c379a000000000000000000000000000000000000000000000000000000000815260040180806020018281038252601a8152602001807f4f6e6c79206f776e657220616c6c6f776564206163636573732e00000000000081525060200191505060405180910390fd5b60006002600084815260200190815260200160002060040160006101000a81548173ffffffffffffffffffffffffffffffffffffffff021916908373ffffffffffffffffffffffffffffffffffffffff16021790555060006002600084815260200190815260200160002060030160006101000a81548160ff02191690836003811115610d4a57fe5b0217905550817f57cce005d496355471bb5269f1dea3d6c81b6ac14c1d74ba28aefb022357013b60405160405180910390a260019050919050565b8060006003811115610d9357fe5b6002600083815260200190815260200160002060030160009054906101000a900460ff166003811115610dc257fe5b141515610e37576040517f08c379a00000000000000000000000000000000000000000000000000000000081526004018080602001828103825260188152602001807f457870656374696e672053746174653a20466f7253616c65000000000000000081525060200191505060405180910390fd5b6002600083815260200190815260200160002060020154803410151515610ec6576040517f08c379a00000000000000000000000000000000000000000000000000000000081526004018080602001828103825260158152602001807f496e70757420636f727265637420616d6f756e742e000000000000000000000081525060200191505060405180910390fd5b8260008060016002600088815260200190815260200160002060030160006101000a81548160ff02191690836003811115610efd57fe5b0217905550336002600088815260200190815260200160002060040160006101000a81548173ffffffffffffffffffffffffffffffffffffffff021916908373ffffffffffffffffffffffffffffffffffffffff1602179055506002600087815260200190815260200160002060030160019054906101000a900473ffffffffffffffffffffffffffffffffffffffff1673ffffffffffffffffffffffffffffffffffffffff166108fc60026000898152602001908152602001600020600201549081150290604051600060405180830381858888f19350505050158015610fe9573d6000803e3d6000fd5b50857f92f64ca637d023f354075a4be751b169c1a8a9ccb6d33cdd0cb352054399572760405160405180910390a26002600084815260200190815260200160002060020154915081340390506002600084815260200190815260200160002060040160009054906101000a900473ffffffffffffffffffffffffffffffffffffffff1673ffffffffffffffffffffffffffffffffffffffff166108fc829081150290604051600060405180830381858888f193505050501580156110b1573d6000803e3d6000fd5b50505050505050565b80600160038111156110c857fe5b6002600083815260200190815260200160002060030160009054906101000a900460ff1660038111156110f757fe5b14151561116c576040517f08c379a00000000000000000000000000000000000000000000000000000000081526004018080602001828103825260158152602001807f457870656374696e672053746174653a20536f6c64000000000000000000000081525060200191505060405180910390fd5b6002600083815260200190815260200160002060030160019054906101000a900473ffffffffffffffffffffffffffffffffffffffff168073ffffffffffffffffffffffffffffffffffffffff163373ffffffffffffffffffffffffffffffffffffffff16141515611246576040517f08c379a00000000000000000000000000000000000000000000000000000000081526004018080602001828103825260188152602001807f4661696c656420746f207665726966792063616c6c65722e000000000000000081525060200191505060405180910390fd5b600280600085815260200190815260200160002060030160006101000a81548160ff0219169083600381111561127857fe5b0217905550827ff00b9a5725b80c54016f42114f6ed7792d22eecb116011c4afac29c57bef6c9560405160405180910390a2505050565b828054600181600116156101000203166002900490600052602060002090601f016020900481019282601f106112f057805160ff191683800117855561131e565b8280016001018555821561131e579182015b8281111561131d578251825591602001919060010190611302565b5b50905061132b919061132f565b5090565b61135191905b8082111561134d576000816000905550600101611335565b5090565b905600a165627a7a7230582026b670835b27a5e6d2c3db1898f58dac441f31e7e5f1e1dac05ab3af241102090029",
  "source": "pragma solidity ^0.4.23;\n\ncontract SupplyChain {\n\n  /* set owner */\n  address public owner;\n\n  /* Add a variable calledå skuCount to track the most recent sku # */\n  uint256 public skuCount;\n\n  /* Add a line that creates a public mapping that maps the SKU (a number) to an Item.\n     Call this mappings items\n  */\n  mapping (uint256 => Item) public items;\n\n  /* Add a line that creates an enum called State. This should have 4 states\n    ForSale\n    Sold\n    Shipped\n    Received\n    (declaring them in this order is important for testing)\n  */\n  enum State{ \n    ForSale, \n    Sold, \n    Shipped, \n    Received\n  }\n\n  /* Create a struct named Item.\n    Here, add a name, sku, price, state, seller, and buyer\n    We've left you to figure out what the appropriate types are,\n    if you need help you can ask around :)\n  */\n  struct Item {\n    string name;\n    uint256 sku;\n    uint256 price;\n    State state;\n    address seller;\n    address buyer;\n  }\n\n  /* Create 4 events with the same name as each possible State (see above)\n    Each event should accept one argument, the sku*/\n  event ForSale(uint256 indexed sku);\n  event Sold(uint256 indexed sku);\n  event Shipped(uint256 indexed sku);\n  event Received(uint256 indexed sku);\n  event DisputeResolved(uint256 indexed sku);\n\n/* Create a modifer that checks if the msg.sender is the owner of the contract */\n  modifier onlyOwner {\n    require(msg.sender == owner, \"Only owner allowed access.\");\n    _;\n  }\n\n  modifier verifyCaller (address _address) {\n    require (msg.sender == _address, \"Failed to verify caller.\"); \n    _;\n  }\n\n  modifier paidEnough (uint256 _price) {\n    require(msg.value >= _price, \"Input correct amount.\"); \n    _;\n  }\n\n  modifier checkValue (uint256 _sku) {\n    //refund them after pay for item (why it is before, _ checks for logic before func)\n    _;\n    uint256 _price = items[_sku].price;\n    uint256 amountToRefund = msg.value - _price;\n    items[_sku].buyer.transfer(amountToRefund);\n  }\n\n  modifier checkPriceBoundary (uint256 _price) {\n    require(_price > 0 && _price < 2**256-1, \"Failed boundary check.\");\n    _;\n  }\n\n  /* For each of the following modifiers, use what you learned about modifiers\n   to give them functionality. For example, the forSale modifier should require\n   that the item with the given sku has the state ForSale. */\n  modifier forSale (uint256 _sku) {\n    require(items[_sku].state == State.ForSale, \"Expecting State: ForSale\");\n    _;\n  }\n\n  modifier sold (uint256 _sku) {\n    require(items[_sku].state == State.Sold, \"Expecting State: Sold\");\n    _;\n  }\n  modifier shipped (uint256 _sku) {\n    require(items[_sku].state == State.Shipped, \"Expecting State: Shipped\");\n    _;\n  }\n  modifier received (uint256 _sku) {\n    require(items[_sku].state == State.Received, \"Expecting State: Received\");\n    _;\n  }\n\n  constructor() public {\n    /* Here, set the owner as the person who instantiated the contract\n       and set your skuCount to 0. */\n    owner = msg.sender;\n    skuCount = 0;\n  }\n\n  /* Mimick example of a dispute between two buyers whom have not finalized their transactions. */\n  function resolveDispute (uint256 _sku) public onlyOwner returns (bool) {\n    items[_sku].buyer = 0x0;\n    items[_sku].state = State.ForSale;\n    emit DisputeResolved(_sku);\n    return true;\n  }\n\n  function addItem (string _name, uint256 _price) public checkPriceBoundary(_price) returns (bool) {\n    emit ForSale(skuCount);\n    items[skuCount] = Item({name: _name, sku: skuCount, price: _price, state: State.ForSale, seller: msg.sender, buyer: 0});\n    skuCount = skuCount + 1;\n    return true;\n  }\n\n  /* Add a keyword so the function can be paid. This function should transfer money\n    to the seller, set the buyer as the person who called this transaction, and set the state\n    to Sold. Be careful, this function should use 3 modifiers to check if the item is for sale,\n    if the buyer paid enough, and check the value after the function is called to make sure the buyer is\n    refunded any excess ether sent. Remember to call the event associated with this function!*/\n\n  function buyItem (uint256 _sku) public payable forSale(_sku) paidEnough(items[_sku].price) checkValue(_sku) {\n    items[_sku].state = State.Sold;\n    items[_sku].buyer = msg.sender;\n    items[_sku].seller.transfer(items[_sku].price);\n    emit Sold(_sku);\n  }\n\n  /* Add 2 modifiers to check if the item is sold already, and that the person calling this function\n  is the seller. Change the state of the item to shipped. Remember to call the event associated with this function!*/\n  function shipItem (uint _sku) public sold(_sku) verifyCaller(items[_sku].seller) {\n    items[_sku].state = State.Shipped;\n    emit Shipped(_sku);\n  }\n\n  /* Add 2 modifiers to check if the item is shipped already, and that the person calling this function\n  is the buyer. Change the state of the item to received. Remember to call the event associated with this function!*/\n  function receiveItem (uint _sku) public shipped(_sku) verifyCaller(items[_sku].buyer) {\n    items[_sku].state = State.Received;\n    emit Received(_sku);\n  }\n\n  /* We have these functions completed so we can run tests, just ignore it :) */\n  function fetchItem (uint _sku) public view returns (string name, uint sku, uint price, uint state, address seller, address buyer) {\n    name = items[_sku].name;\n    sku = items[_sku].sku;\n    price = items[_sku].price;\n    state = uint(items[_sku].state);\n    seller = items[_sku].seller;\n    buyer = items[_sku].buyer;\n    return (name, sku, price, state, seller, buyer);\n  }\n\n}",
  "sourcePath": "/Users/anmar/supply-chain-cryptobarbossa/contracts/SupplyChain.sol",
  "compiler": {
    "name": "solc",
    "version": "0.4.24+commit.e67f0147.Emscripten.clang"
  },
  "schemaVersion": "2.0.1",
  "updatedAt": "2018-11-21T15:13:11.994Z"
}